{
  "contractName": "CarbonCredit",
  "abi": [
    {
      "constant": true,
      "inputs": [],
      "name": "orgName",
      "outputs": [
        {
          "name": "",
          "type": "string"
        }
      ],
      "payable": false,
      "stateMutability": "view",
      "type": "function"
    },
    {
      "constant": true,
      "inputs": [],
      "name": "orgCargoWeight",
      "outputs": [
        {
          "name": "",
          "type": "uint32"
        }
      ],
      "payable": false,
      "stateMutability": "view",
      "type": "function"
    },
    {
      "constant": true,
      "inputs": [],
      "name": "noOfVehicles",
      "outputs": [
        {
          "name": "",
          "type": "uint32"
        }
      ],
      "payable": false,
      "stateMutability": "view",
      "type": "function"
    },
    {
      "constant": true,
      "inputs": [],
      "name": "carbonCreditValue",
      "outputs": [
        {
          "name": "",
          "type": "uint32"
        }
      ],
      "payable": false,
      "stateMutability": "view",
      "type": "function"
    },
    {
      "constant": true,
      "inputs": [],
      "name": "avgDistance",
      "outputs": [
        {
          "name": "",
          "type": "uint32"
        }
      ],
      "payable": false,
      "stateMutability": "view",
      "type": "function"
    },
    {
      "constant": true,
      "inputs": [],
      "name": "orgVehicleWeight",
      "outputs": [
        {
          "name": "",
          "type": "uint32"
        }
      ],
      "payable": false,
      "stateMutability": "view",
      "type": "function"
    },
    {
      "constant": false,
      "inputs": [
        {
          "name": "_orgName",
          "type": "string"
        },
        {
          "name": "_noOfVehicles",
          "type": "uint32"
        },
        {
          "name": "_avgDistance",
          "type": "uint32"
        },
        {
          "name": "_orgVehicleWeight",
          "type": "uint32"
        },
        {
          "name": "_orgCargoWeight",
          "type": "uint32"
        }
      ],
      "name": "inputDetails",
      "outputs": [],
      "payable": false,
      "stateMutability": "nonpayable",
      "type": "function"
    },
    {
      "constant": true,
      "inputs": [],
      "name": "getCarbonCredits",
      "outputs": [
        {
          "name": "",
          "type": "int256"
        }
      ],
      "payable": false,
      "stateMutability": "view",
      "type": "function"
    }
  ],
  "bytecode": "0x608060405234801561001057600080fd5b506106ca806100206000396000f30060806040526004361061008e576000357c0100000000000000000000000000000000000000000000000000000000900463ffffffff1680631386dc2d146100935780631c1c525414610123578063265e132d1461015a57806329466f941461019157806347781b17146101c85780638db59348146101ff578063d8ba406e146102a8578063f27b7e2a146102df575b600080fd5b34801561009f57600080fd5b506100a861030a565b6040518080602001828103825283818151815260200191508051906020019080838360005b838110156100e85780820151818401526020810190506100cd565b50505050905090810190601f1680156101155780820380516001836020036101000a031916815260200191505b509250505060405180910390f35b34801561012f57600080fd5b506101386103a8565b604051808263ffffffff1663ffffffff16815260200191505060405180910390f35b34801561016657600080fd5b5061016f6103be565b604051808263ffffffff1663ffffffff16815260200191505060405180910390f35b34801561019d57600080fd5b506101a66103d4565b604051808263ffffffff1663ffffffff16815260200191505060405180910390f35b3480156101d457600080fd5b506101dd6103ea565b604051808263ffffffff1663ffffffff16815260200191505060405180910390f35b34801561020b57600080fd5b506102a6600480360381019080803590602001908201803590602001908080601f0160208091040260200160405190810160405280939291908181526020018383808284378201915050505050509192919290803563ffffffff169060200190929190803563ffffffff169060200190929190803563ffffffff169060200190929190803563ffffffff169060200190929190505050610400565b005b3480156102b457600080fd5b506102bd6105af565b604051808263ffffffff1663ffffffff16815260200191505060405180910390f35b3480156102eb57600080fd5b506102f46105c5565b6040518082815260200191505060405180910390f35b60008054600181600116156101000203166002900480601f0160208091040260200160405190810160405280929190818152602001828054600181600116156101000203166002900480156103a05780601f10610375576101008083540402835291602001916103a0565b820191906000526020600020905b81548152906001019060200180831161038357829003601f168201915b505050505081565b6001600c9054906101000a900463ffffffff1681565b600160009054906101000a900463ffffffff1681565b600160109054906101000a900463ffffffff1681565b600160049054906101000a900463ffffffff1681565b84600090805190602001906104169291906105f9565b5083600160006101000a81548163ffffffff021916908363ffffffff16021790555082600160046101000a81548163ffffffff021916908363ffffffff16021790555081600160086101000a81548163ffffffff021916908363ffffffff160217905550806001600c6101000a81548163ffffffff021916908363ffffffff1602179055506101f4600160089054906101000a900463ffffffff1663ffffffff16111561053457608f6001600c9054906101000a900463ffffffff16600160089054906101000a900463ffffffff1601600160049054906101000a900463ffffffff16600160009054906101000a900463ffffffff16020202600160106101000a81548163ffffffff021916908363ffffffff1602179055506105a8565b6101336001600c9054906101000a900463ffffffff16600160089054906101000a900463ffffffff1601600160049054906101000a900463ffffffff16600160009054906101000a900463ffffffff16020202600160106101000a81548163ffffffff021916908363ffffffff1602179055505b5050505050565b600160089054906101000a900463ffffffff1681565b6000620f4240600160109054906101000a900463ffffffff1663ffffffff168115156105ed57fe5b0463ffffffff16905090565b828054600181600116156101000203166002900490600052602060002090601f016020900481019282601f1061063a57805160ff1916838001178555610668565b82800160010185558215610668579182015b8281111561066757825182559160200191906001019061064c565b5b5090506106759190610679565b5090565b61069b91905b8082111561069757600081600090555060010161067f565b5090565b905600a165627a7a72305820b7b97d6bb1476bb57fb0c3af23cf058fcb1b7a0ec421f28d98bdb1d47c12aa110029",
  "source": "pragma solidity ^0.4.24;\n\ncontract CarbonCredit {\n\n\n    //Factors required for calculation as well as the contract details\n    string public orgName;\n    uint32 public noOfVehicles;\n    uint32 public avgDistance;\n    uint32 public orgVehicleWeight;\n    uint32 public orgCargoWeight;\n    uint32 public carbonCreditValue;\n\n\n    function inputDetails(string _orgName, uint32 _noOfVehicles, uint32 _avgDistance, uint32 _orgVehicleWeight, uint32 _orgCargoWeight) public{\n        orgName = _orgName;\n        noOfVehicles = _noOfVehicles;\n        avgDistance = _avgDistance;\n        orgVehicleWeight = _orgVehicleWeight;\n        orgCargoWeight = _orgCargoWeight;\n\n        if (orgVehicleWeight > 500){\n            carbonCreditValue = noOfVehicles * avgDistance * (orgVehicleWeight + orgCargoWeight) * 143;\n        }\n        else{\n            carbonCreditValue = noOfVehicles * avgDistance * (orgVehicleWeight + orgCargoWeight) * 307;\n        }\n    }\n\n    function getCarbonCredits() external view returns (int) { \n        return carbonCreditValue/1000000; \n    }\n}",
  "sourcePath": "/home/cmubuntu/Blockchain Projects/carboncredit/contracts/CarbonCredit.sol",
  "compiler": {
    "name": "solc",
    "version": "0.4.24+commit.e67f0147.Emscripten.clang"
  },
  "schemaVersion": "3.4.4",
  "updatedAt": "2022-02-21T09:32:18.451Z",
  "networkType": "ethereum",
  "devdoc": {
    "methods": {}
  },
  "userdoc": {
    "methods": {}
  }
}